{
  "contractName": "RandomAccessContract16",
  "abi": [
    {
      "constant": true,
      "inputs": [
        {
          "name": "ptr",
          "type": "bytes16"
        }
      ],
      "name": "stat",
      "outputs": [
        {
          "name": "",
          "type": "uint256"
        }
      ],
      "payable": false,
      "stateMutability": "view",
      "type": "function"
    },
    {
      "constant": false,
      "inputs": [
        {
          "name": "ptr",
          "type": "bytes16"
        },
        {
          "name": "buf",
          "type": "bytes"
        },
        {
          "name": "off",
          "type": "uint256"
        },
        {
          "name": "size",
          "type": "uint256"
        }
      ],
      "name": "write",
      "outputs": [],
      "payable": false,
      "stateMutability": "nonpayable",
      "type": "function"
    },
    {
      "constant": true,
      "inputs": [
        {
          "name": "ptr",
          "type": "bytes16"
        },
        {
          "name": "off",
          "type": "uint256"
        },
        {
          "name": "size",
          "type": "uint256"
        }
      ],
      "name": "read",
      "outputs": [
        {
          "name": "",
          "type": "bytes"
        }
      ],
      "payable": false,
      "stateMutability": "view",
      "type": "function"
    },
    {
      "constant": false,
      "inputs": [
        {
          "name": "ptr",
          "type": "bytes16"
        },
        {
          "name": "off",
          "type": "uint256"
        },
        {
          "name": "size",
          "type": "uint256"
        }
      ],
      "name": "del",
      "outputs": [],
      "payable": false,
      "stateMutability": "nonpayable",
      "type": "function"
    }
  ],
  "bytecode": "0x608060405261066a806100136000396000f300608060405260043610610062576000357c0100000000000000000000000000000000000000000000000000000000900463ffffffff1680632494ced71461006757806342322bed1461010157806389cc796d146101ce5780638ee62c1214610222575b600080fd5b34801561007357600080fd5b506100ff60048036038101908080356fffffffffffffffffffffffffffffffff19169060200190929190803590602001908201803590602001908080601f01602080910402602001604051908101604052809392919081815260200183838082843782019150505050505091929192908035906020019092919080359060200190929190505050610276565b005b34801561010d57600080fd5b5061015360048036038101908080356fffffffffffffffffffffffffffffffff191690602001909291908035906020019092919080359060200190929190505050610384565b6040518080602001828103825283818151815260200191508051906020019080838360005b83811015610193578082015181840152602081019050610178565b50505050905090810190601f1680156101c05780820380516001836020036101000a031916815260200191505b509250505060405180910390f35b3480156101da57600080fd5b5061022060048036038101908080356fffffffffffffffffffffffffffffffff1916906020019092919080359060200190929190803590602001909291905050506104a3565b005b34801561022e57600080fd5b5061026060048036038101908080356fffffffffffffffffffffffffffffffff19169060200190929190505050610543565b6040518082815260200191505060405180910390f35b73__RandomAccessStorage___________________636207c73e610299866105fa565b8585856040518563ffffffff167c01000000000000000000000000000000000000000000000000000000000281526004018085815260200180602001848152602001838152602001828103825285818151815260200191508051906020019080838360005b838110156103195780820151818401526020810190506102fe565b50505050905090810190601f1680156103465780820380516001836020036101000a031916815260200191505b509550505050505060006040518083038186803b15801561036657600080fd5b505af415801561037a573d6000803e3d6000fd5b5050505050505050565b606073__RandomAccessStorage___________________63a27135ec6103a9866105fa565b85856040518463ffffffff167c010000000000000000000000000000000000000000000000000000000002815260040180848152602001838152602001828152602001935050505060006040518083038186803b15801561040957600080fd5b505af415801561041d573d6000803e3d6000fd5b505050506040513d6000823e3d601f19601f82011682018060405250602081101561044757600080fd5b81019080805164010000000081111561045f57600080fd5b8281019050602081018481111561047557600080fd5b815185600182028301116401000000008211171561049257600080fd5b505092919050505090509392505050565b73__RandomAccessStorage___________________63b78a4bb46104c6856105fa565b84846040518463ffffffff167c010000000000000000000000000000000000000000000000000000000002815260040180848152602001838152602001828152602001935050505060006040518083038186803b15801561052657600080fd5b505af415801561053a573d6000803e3d6000fd5b50505050505050565b600073__RandomAccessStorage___________________6310467111610568846105fa565b6040518263ffffffff167c01000000000000000000000000000000000000000000000000000000000281526004018082815260200191505060206040518083038186803b1580156105b857600080fd5b505af41580156105cc573d6000803e3d6000fd5b505050506040513d60208110156105e257600080fd5b81019080805190602001909291905050509050919050565b6000806000016000836fffffffffffffffffffffffffffffffff19166fffffffffffffffffffffffffffffffff1916815260200190815260200160002090509190505600a165627a7a723058203caf0fcc14f3a5bd5acefc073cc7c30b149686fe7672ff7687c7a033d252bda80029",
  "source": "pragma solidity ^0.4.24;\n\nimport { RandomAccessInterface16 } from \"./RandomAccessInterface.sol\";\nimport { RandomAccessStorage } from \"./RandomAccessStorage.sol\";\n\ncontract RandomAccessContract16 is RandomAccessInterface16 {\n  RandomAccessStorage.RandomAccessMemory16 private ram;\n\n  function page(bytes16 ptr)\n  internal view returns (bytes storage) {\n    return ram.pages[ptr];\n  }\n\n  function stat(bytes16 ptr)\n  public constant returns (uint256) {\n    return RandomAccessStorage.stat(page(ptr));\n  }\n\n  function write(bytes16 ptr, bytes buf, uint256 off, uint256 size)\n  public {\n    RandomAccessStorage.write(page(ptr), buf, off, size);\n  }\n\n  function read(bytes16 ptr, uint256 off, uint256 size)\n  public view returns (bytes memory) {\n    return RandomAccessStorage.read(page(ptr), off, size);\n  }\n\n  function del(bytes16 ptr, uint256 off, uint256 size)\n  public {\n    return RandomAccessStorage.del(page(ptr), off, size);\n  }\n}\n",
  "sourcePath": "/home/werle/repos/arablocks/random-access-contract/contracts/RandomAccessContract16.sol",
  "compiler": {
    "name": "solc",
    "version": "0.4.24+commit.e67f0147.Emscripten.clang"
  },
  "schemaVersion": "2.0.0",
  "updatedAt": "2018-07-09T15:02:18.094Z"
}