{
  "contractName": "RandomAccessContract",
  "abi": [
    {
      "constant": true,
      "inputs": [
        {
          "name": "ptr",
          "type": "bytes32"
        }
      ],
      "name": "stat",
      "outputs": [
        {
          "name": "",
          "type": "uint256"
        }
      ],
      "payable": false,
      "stateMutability": "view",
      "type": "function"
    },
    {
      "constant": false,
      "inputs": [
        {
          "name": "ptr",
          "type": "bytes32"
        },
        {
          "name": "off",
          "type": "uint256"
        },
        {
          "name": "size",
          "type": "uint256"
        }
      ],
      "name": "del",
      "outputs": [],
      "payable": false,
      "stateMutability": "nonpayable",
      "type": "function"
    },
    {
      "constant": false,
      "inputs": [
        {
          "name": "ptr",
          "type": "bytes32"
        },
        {
          "name": "buf",
          "type": "bytes"
        },
        {
          "name": "off",
          "type": "uint256"
        },
        {
          "name": "size",
          "type": "uint256"
        }
      ],
      "name": "write",
      "outputs": [],
      "payable": false,
      "stateMutability": "nonpayable",
      "type": "function"
    },
    {
      "constant": true,
      "inputs": [
        {
          "name": "ptr",
          "type": "bytes32"
        },
        {
          "name": "off",
          "type": "uint256"
        },
        {
          "name": "size",
          "type": "uint256"
        }
      ],
      "name": "read",
      "outputs": [
        {
          "name": "",
          "type": "bytes"
        }
      ],
      "payable": false,
      "stateMutability": "view",
      "type": "function"
    }
  ],
  "bytecode": "0x6080604052610610806100136000396000f300608060405260043610610062576000357c0100000000000000000000000000000000000000000000000000000000900463ffffffff16806307f3d716146100675780630bdb301d146100ac5780633a2d80a9146100f157806390e360031461017c575b600080fd5b34801561007357600080fd5b50610096600480360381019080803560001916906020019092919050505061023a565b6040518082815260200191505060405180910390f35b3480156100b857600080fd5b506100ef600480360381019080803560001916906020019092919080359060200190929190803590602001909291905050506102f1565b005b3480156100fd57600080fd5b5061017a6004803603810190808035600019169060200190929190803590602001908201803590602001908080601f01602080910402602001604051908101604052809392919081815260200183838082843782019150505050505091929192908035906020019092919080359060200190929190505050610391565b005b34801561018857600080fd5b506101bf6004803603810190808035600019169060200190929190803590602001909291908035906020019092919050505061049f565b6040518080602001828103825283818151815260200191508051906020019080838360005b838110156101ff5780820151818401526020810190506101e4565b50505050905090810190601f16801561022c5780820380516001836020036101000a031916815260200191505b509250505060405180910390f35b600073__RandomAccessStorage___________________631046711161025f846105be565b6040518263ffffffff167c01000000000000000000000000000000000000000000000000000000000281526004018082815260200191505060206040518083038186803b1580156102af57600080fd5b505af41580156102c3573d6000803e3d6000fd5b505050506040513d60208110156102d957600080fd5b81019080805190602001909291905050509050919050565b73__RandomAccessStorage___________________63b78a4bb4610314856105be565b84846040518463ffffffff167c010000000000000000000000000000000000000000000000000000000002815260040180848152602001838152602001828152602001935050505060006040518083038186803b15801561037457600080fd5b505af4158015610388573d6000803e3d6000fd5b50505050505050565b73__RandomAccessStorage___________________636207c73e6103b4866105be565b8585856040518563ffffffff167c01000000000000000000000000000000000000000000000000000000000281526004018085815260200180602001848152602001838152602001828103825285818151815260200191508051906020019080838360005b83811015610434578082015181840152602081019050610419565b50505050905090810190601f1680156104615780820380516001836020036101000a031916815260200191505b509550505050505060006040518083038186803b15801561048157600080fd5b505af4158015610495573d6000803e3d6000fd5b5050505050505050565b606073__RandomAccessStorage___________________63a27135ec6104c4866105be565b85856040518463ffffffff167c010000000000000000000000000000000000000000000000000000000002815260040180848152602001838152602001828152602001935050505060006040518083038186803b15801561052457600080fd5b505af4158015610538573d6000803e3d6000fd5b505050506040513d6000823e3d601f19601f82011682018060405250602081101561056257600080fd5b81019080805164010000000081111561057a57600080fd5b8281019050602081018481111561059057600080fd5b81518560018202830111640100000000821117156105ad57600080fd5b505092919050505090509392505050565b6000806000016000836000191660001916815260200190815260200160002090509190505600a165627a7a723058203a5aaed2574d3b23f3d16490ef8098e6b257bf79986f942c7fffee8c0d50bde30029",
  "source": "pragma solidity ^0.4.24;\n\nimport { RandomAccessContract32 } from \"./RandomAccessContract32.sol\";\n\ncontract RandomAccessContract is RandomAccessContract32 {\n}\n",
  "sourcePath": "/home/werle/repos/arablocks/random-access-contract/contracts/RandomAccessContract.sol",
  "compiler": {
    "name": "solc",
    "version": "0.4.24+commit.e67f0147.Emscripten.clang"
  },
  "schemaVersion": "2.0.0",
  "updatedAt": "2018-07-09T15:02:18.090Z"
}