{
  "contractName": "RandomAccessContract8",
  "abi": [
    {
      "constant": true,
      "inputs": [
        {
          "name": "ptr",
          "type": "bytes8"
        }
      ],
      "name": "stat",
      "outputs": [
        {
          "name": "",
          "type": "uint256"
        }
      ],
      "payable": false,
      "stateMutability": "view",
      "type": "function"
    },
    {
      "constant": false,
      "inputs": [
        {
          "name": "ptr",
          "type": "bytes8"
        },
        {
          "name": "buf",
          "type": "bytes"
        },
        {
          "name": "off",
          "type": "uint256"
        },
        {
          "name": "size",
          "type": "uint256"
        }
      ],
      "name": "write",
      "outputs": [],
      "payable": false,
      "stateMutability": "nonpayable",
      "type": "function"
    },
    {
      "constant": true,
      "inputs": [
        {
          "name": "ptr",
          "type": "bytes8"
        },
        {
          "name": "off",
          "type": "uint256"
        },
        {
          "name": "size",
          "type": "uint256"
        }
      ],
      "name": "read",
      "outputs": [
        {
          "name": "",
          "type": "bytes"
        }
      ],
      "payable": false,
      "stateMutability": "view",
      "type": "function"
    },
    {
      "constant": false,
      "inputs": [
        {
          "name": "ptr",
          "type": "bytes8"
        },
        {
          "name": "off",
          "type": "uint256"
        },
        {
          "name": "size",
          "type": "uint256"
        }
      ],
      "name": "del",
      "outputs": [],
      "payable": false,
      "stateMutability": "nonpayable",
      "type": "function"
    }
  ],
  "bytecode": "0x608060405261069a806100136000396000f300608060405260043610610062576000357c0100000000000000000000000000000000000000000000000000000000900463ffffffff16806331c73ca0146100675780637ab54757146100c3578063a05db2e714610198578063a4d9dfbd146101f4575b600080fd5b34801561007357600080fd5b506100c1600480360381019080803577ffffffffffffffffffffffffffffffffffffffffffffffff191690602001909291908035906020019092919080359060200190929190505050610296565b005b3480156100cf57600080fd5b5061011d600480360381019080803577ffffffffffffffffffffffffffffffffffffffffffffffff191690602001909291908035906020019092919080359060200190929190505050610336565b6040518080602001828103825283818151815260200191508051906020019080838360005b8381101561015d578082015181840152602081019050610142565b50505050905090810190601f16801561018a5780820380516001836020036101000a031916815260200191505b509250505060405180910390f35b3480156101a457600080fd5b506101de600480360381019080803577ffffffffffffffffffffffffffffffffffffffffffffffff19169060200190929190505050610455565b6040518082815260200191505060405180910390f35b34801561020057600080fd5b50610294600480360381019080803577ffffffffffffffffffffffffffffffffffffffffffffffff19169060200190929190803590602001908201803590602001908080601f0160208091040260200160405190810160405280939291908181526020018383808284378201915050505050509192919290803590602001909291908035906020019092919050505061050c565b005b73__RandomAccessStorage___________________63b78a4bb46102b98561061a565b84846040518463ffffffff167c010000000000000000000000000000000000000000000000000000000002815260040180848152602001838152602001828152602001935050505060006040518083038186803b15801561031957600080fd5b505af415801561032d573d6000803e3d6000fd5b50505050505050565b606073__RandomAccessStorage___________________63a27135ec61035b8661061a565b85856040518463ffffffff167c010000000000000000000000000000000000000000000000000000000002815260040180848152602001838152602001828152602001935050505060006040518083038186803b1580156103bb57600080fd5b505af41580156103cf573d6000803e3d6000fd5b505050506040513d6000823e3d601f19601f8201168201806040525060208110156103f957600080fd5b81019080805164010000000081111561041157600080fd5b8281019050602081018481111561042757600080fd5b815185600182028301116401000000008211171561044457600080fd5b505092919050505090509392505050565b600073__RandomAccessStorage___________________631046711161047a8461061a565b6040518263ffffffff167c01000000000000000000000000000000000000000000000000000000000281526004018082815260200191505060206040518083038186803b1580156104ca57600080fd5b505af41580156104de573d6000803e3d6000fd5b505050506040513d60208110156104f457600080fd5b81019080805190602001909291905050509050919050565b73__RandomAccessStorage___________________636207c73e61052f8661061a565b8585856040518563ffffffff167c01000000000000000000000000000000000000000000000000000000000281526004018085815260200180602001848152602001838152602001828103825285818151815260200191508051906020019080838360005b838110156105af578082015181840152602081019050610594565b50505050905090810190601f1680156105dc5780820380516001836020036101000a031916815260200191505b509550505050505060006040518083038186803b1580156105fc57600080fd5b505af4158015610610573d6000803e3d6000fd5b5050505050505050565b60008060000160008377ffffffffffffffffffffffffffffffffffffffffffffffff191677ffffffffffffffffffffffffffffffffffffffffffffffff1916815260200190815260200160002090509190505600a165627a7a72305820220017b3f52f49525caff488e16aa510325bf1cf3ac13c7d7b1c63dc46b67db00029",
  "source": "pragma solidity ^0.4.24;\n\nimport { RandomAccessInterface8 } from \"./RandomAccessInterface.sol\";\nimport { RandomAccessStorage } from \"./RandomAccessStorage.sol\";\n\ncontract RandomAccessContract8 is RandomAccessInterface8 {\n  RandomAccessStorage.RandomAccessMemory8 private ram;\n\n  function page(bytes8 ptr)\n  internal view returns (bytes storage) {\n    return ram.pages[ptr];\n  }\n\n  function stat(bytes8 ptr)\n  public constant returns (uint256) {\n    return RandomAccessStorage.stat(page(ptr));\n  }\n\n  function write(bytes8 ptr, bytes buf, uint256 off, uint256 size)\n  public {\n    RandomAccessStorage.write(page(ptr), buf, off, size);\n  }\n\n  function read(bytes8 ptr, uint256 off, uint256 size)\n  public view returns (bytes memory) {\n    return RandomAccessStorage.read(page(ptr), off, size);\n  }\n\n  function del(bytes8 ptr, uint256 off, uint256 size)\n  public {\n    return RandomAccessStorage.del(page(ptr), off, size);\n  }\n}\n",
  "sourcePath": "/home/werle/repos/arablocks/random-access-contract/contracts/RandomAccessContract8.sol",
  "compiler": {
    "name": "solc",
    "version": "0.4.24+commit.e67f0147.Emscripten.clang"
  },
  "schemaVersion": "2.0.0",
  "updatedAt": "2018-07-09T15:02:18.096Z"
}