{
  "contractName": "RandomAccessStorage",
  "abi": [
    {
      "constant": true,
      "inputs": [
        {
          "name": "page",
          "type": "bytes storage"
        }
      ],
      "name": "stat",
      "outputs": [
        {
          "name": "length",
          "type": "uint256"
        }
      ],
      "payable": false,
      "stateMutability": "view",
      "type": "function"
    },
    {
      "constant": false,
      "inputs": [
        {
          "name": "page",
          "type": "bytes storage"
        },
        {
          "name": "buf",
          "type": "bytes"
        },
        {
          "name": "off",
          "type": "uint256"
        },
        {
          "name": "size",
          "type": "uint256"
        }
      ],
      "name": "write",
      "outputs": [],
      "payable": false,
      "stateMutability": "nonpayable",
      "type": "function"
    },
    {
      "constant": true,
      "inputs": [
        {
          "name": "page",
          "type": "bytes storage"
        },
        {
          "name": "off",
          "type": "uint256"
        },
        {
          "name": "size",
          "type": "uint256"
        }
      ],
      "name": "read",
      "outputs": [
        {
          "name": "",
          "type": "bytes"
        }
      ],
      "payable": false,
      "stateMutability": "view",
      "type": "function"
    },
    {
      "constant": false,
      "inputs": [
        {
          "name": "page",
          "type": "bytes storage"
        },
        {
          "name": "off",
          "type": "uint256"
        },
        {
          "name": "size",
          "type": "uint256"
        }
      ],
      "name": "del",
      "outputs": [],
      "payable": false,
      "stateMutability": "nonpayable",
      "type": "function"
    },
    {
      "constant": false,
      "inputs": [
        {
          "name": "page",
          "type": "bytes storage"
        },
        {
          "name": "buf",
          "type": "bytes"
        },
        {
          "name": "off",
          "type": "uint256"
        }
      ],
      "name": "concat",
      "outputs": [],
      "payable": false,
      "stateMutability": "nonpayable",
      "type": "function"
    }
  ],
  "bytecode": "0x61097c610030600b82828239805160001a6073146000811461002057610022565bfe5b5030600052607381538281f3007300000000000000000000000000000000000000003014608060405260043610610084576000357c0100000000000000000000000000000000000000000000000000000000900463ffffffff16806310467111146100895780636207c73e146100bd57806394441f2c14610144578063a27135ec146101c1578063b78a4bb41461026e575b600080fd5b6100a7600480360381019080803590602001909291905050506102af565b6040518082815260200191505060405180910390f35b8180156100c957600080fd5b5061014260048036038101908080359060200190929190803590602001908201803590602001908080601f016020809104026020016040519081016040528093929190818152602001838380828437820191505050505050919291929080359060200190929190803590602001909291905050506102ce565b005b81801561015057600080fd5b506101bf60048036038101908080359060200190929190803590602001908201803590602001908080601f016020809104026020016040519081016040528093929190818152602001838380828437820191505050505050919291929080359060200190929190505050610477565b005b6101f360048036038101908080359060200190929190803590602001909291908035906020019092919050505061068c565b6040518080602001828103825283818151815260200191508051906020019080838360005b83811015610233578082015181840152602081019050610218565b50505050905090810190601f1680156102605780820380516001836020036101000a031916815260200191505b509250505060405180910390f35b81801561027a57600080fd5b506102ad60048036038101908080359060200190929190803590602001909291908035906020019092919050505061078f565b005b6000815460026001808316156101000203821604915050809050919050565b826000815111151561036e576040517f08c379a000000000000000000000000000000000000000000000000000000000815260040180806020018281038252602a8152602001807f52616e646f6d41636365737353746f726167653a206e6f746e756c6c3a20456d81526020017f7074792062797465732e0000000000000000000000000000000000000000000081525060400191505060405180910390fd5b8160008111151561040d576040517f08c379a000000000000000000000000000000000000000000000000000000000815260040180806020018281038252603f8152602001807f52616e646f6d41636365737353746f726167653a206e6f747a65726f3a20457881526020017f70656374696e67206e6f6e2d7a65726f2076616c756520696e74656765722e0081525060400191505060405180910390fd5b85805460018160011615610100020316600290049050838501111561043d57828401868161043b9190610862565b505b855460026001808316156101000203821604865180828803830101896000528760200160002060208a015181555050505050505050505050565b8160008151111515610517576040517f08c379a000000000000000000000000000000000000000000000000000000000815260040180806020018281038252602a8152602001807f52616e646f6d41636365737353746f726167653a206e6f746e756c6c3a20456d81526020017f7074792062797465732e0000000000000000000000000000000000000000000081525060400191505060405180910390fd5b8354600260018083161561010002038216048451808201602081106020841001600281146105c857600181146105ed578860005260208404602060002001600160028402018a55602085066020850681602003808c01878d016001836101000a038083511687540187556001870196506020830192505b818310156105ab578251875560018701965060208301925061058e565b8183036101000a9050808184510402875550505050505050610681565b816020036101000a836020036101000a60208a01510402600284020185018955610681565b8860005260208404602060002001600160028402018a5584602003808a01858b016001836101000a03808351167fffffffffffffffffffffffffffffffffffffffffffffffffffffffffffffff008b160185556020830192506001850194505b8183101561066a578251855560018501945060208301925061064d565b8183036101000a9050808184510402855550505050505b505050505050505050565b6060806000836040519080825280601f01601f1916602001820160405280156106c45781602001602082028038833980820191505090505b509150600090505b83811015610783578581860181546001816001161561010002031660029004811015156106f557fe5b8154600116156107145790600052602060002090602091828204019190065b9054901a7f010000000000000000000000000000000000000000000000000000000000000002828281518110151561074857fe5b9060200101907effffffffffffffffffffffffffffffffffffffffffffffffffffffffffffff1916908160001a9053508060010190506106cc565b81925050509392505050565b8060008111151561082e576040517f08c379a000000000000000000000000000000000000000000000000000000000815260040180806020018281038252603f8152602001807f52616e646f6d41636365737353746f726167653a206e6f747a65726f3a20457881526020017f70656374696e67206e6f6e2d7a65726f2076616c756520696e74656765722e0081525060400191505060405180910390fd5b83805460018160011615610100020316600290049050828401111561085c5782848161085a9190610862565b505b50505050565b81546001816001161561010002031660029004825481601f106108bd5782601f106108a2575b826008026101000360020a80910402828001178355610926565b60ff1916836000526020600020558180016001018355610926565b82601f106108ed575082600052602060002080549082601f01602090048101906108e7919061092b565b50610888565b5081800160010183558181111561092657601f016020900481601f01602090048360005260206000209182019101610925919061092b565b5b505050565b61094d91905b80821115610949576000816000905550600101610931565b5090565b905600a165627a7a7230582053fbb473b036c1f297ada522c4aedf568dc8da2d079aea71db9cbfe11af911050029",
  "source": "pragma solidity ^0.4.24;\n\n/**\n */\nlibrary RandomAccessStorage {\n\n  /**\n   * The `struct RandomAccessStorage32` type maps a 32 byte pointer\n   * to a variable byte ranges.\n   */\n  struct RandomAccessMemory32 { mapping (bytes32 => bytes) pages; }\n\n  /**\n   * The `struct RandomAccessStorage16` type maps a 16 byte pointer\n   * to a variable byte ranges.\n   */\n  struct RandomAccessMemory16 { mapping (bytes16 => bytes) pages; }\n\n  /**\n   * The `struct RandomAccessStorage8` type maps a 8 byte pointer\n   * to a variable byte ranges.\n   */\n  struct RandomAccessMemory8 { mapping (bytes8 => bytes) pages; }\n\n  /**\n   * The `notnull` modifier requires that a pointer to\n   * a byte range in memory is not \"null\", or non-zero length.\n   */\n  modifier notnull(bytes memory p) {\n    require(\n      p.length > 0,\n      \"RandomAccessStorage: notnull: Empty bytes.\");\n    _;\n  }\n\n  /**\n   * The `notzero` modifier requires that a 256-bit unsigned\n   * integer value be a positive non-zero value.\n   */\n  modifier notzero(uint256 n) {\n    require(\n      n > 0,\n      \"RandomAccessStorage: notzero: Expecting non-zero value integer.\");\n    _;\n  }\n\n  /**\n   */\n  function stat(bytes storage page)\n  public constant returns (uint256 length) {\n    assembly {\n      let pslot := sload(page_slot)\n      // x & y\n      length := div(and(pslot, sub(mul(0x100, iszero(and(pslot, 1))), 1)), 2)\n    }\n\n    return length;\n  }\n\n  /**\n   */\n  function write(bytes storage page, bytes buf, uint256 off, uint256 size)\n  notnull(buf) notzero(size)\n  public {\n    if (off + size > page.length) {\n      page.length = off + size;\n    }\n\n    assembly {\n      // Read the first 32 bytes of page storage, which is the length\n      // of the array. (We don't need to use the offset into the slot\n      // because arrays use the entire slot.)\n      let pslot := sload(page_slot)\n\n      // Arrays of 31 bytes or less have an even value in their slot,\n      // while longer arrays have an odd value. The actual length is\n      // the slot divided by two for odd values, and the lowest order\n      // byte divided by two for even values.\n      // If the slot is even, bitwise and the slot with 255 and divide by\n      // two to get the length. If the slot is odd, bitwise and the slot\n      // with -1 and divide by two.\n      let slength := div(and(pslot, sub(mul(0x100, iszero(and(pslot, 1))), 1)), 2)\n      let mlength := mload(buf)\n      // 32 + 1 - 32 + 1\n      let newlength := add(add(slength, sub(off, slength)), mlength)\n      //let newlength := add(mload(off, mlength)\n      mstore(0x0, page_slot)\n      let sc := keccak256(0x0, add(0x20, off))\n      sstore(sc, mload(add(buf, 0x20)))\n    }\n\n    return;\n  }\n\n  /**\n   */\n  function read(bytes storage page, uint256 off, uint256 size)\n  //notzero(size)\n  public view returns (bytes memory) {\n    bytes memory buf = new bytes(size);\n\n    for (uint256 i = 0; i < size; ++i) {\n      buf[i] = page[off + i];\n    }\n\n    return buf;\n  }\n\n  /**\n   */\n  function del(bytes storage page, uint256 off, uint256 size)\n  notzero(size)\n  public {\n    if (off + size > page.length) {\n      page.length = off;\n    }\n\n    //bytes memory zero = new bytes(size);\n    //concat(page, zero, off);\n  }\n\n\n  /**\n   * Ported from - https://github.com/GNSPS/solidity-bytes-utils/blob/master/contracts/BytesLib.sol\n   */\n  function concat(bytes storage page, bytes memory buf, uint256 off)\n  notnull(buf)\n  public {\n    assembly {\n      // Read the first 32 bytes of page storage, which is the length\n      // of the array. (We don't need to use the offset into the slot\n      // because arrays use the entire slot.)\n      let pslot := sload(page_slot)\n\n      // Arrays of 31 bytes or less have an even value in their slot,\n      // while longer arrays have an odd value. The actual length is\n      // the slot divided by two for odd values, and the lowest order\n      // byte divided by two for even values.\n      // If the slot is even, bitwise and the slot with 255 and divide by\n      // two to get the length. If the slot is odd, bitwise and the slot\n      // with -1 and divide by two.\n      let slength := div(and(pslot, sub(mul(0x100, iszero(and(pslot, 1))), 1)), 2)\n      let mlength := mload(buf)\n      let newlength := add(slength, mlength)\n\n      // slength can contain both the length and contents of the array\n      // if length < 32 bytes so let's prepare for that\n      // v. http://solidity.readthedocs.io/en/latest/miscellaneous.html#layout-of-state-variables-in-storage\n      switch add(lt(slength, 32), lt(newlength, 32))\n      case 2 {\n        // Since the new array still fits in the slot, we just need to\n        // update the contents of the slot.\n        // uint256(bytes_storage) = uint256(bytes_storage) + uint256(bytes_memory) + new_length\n        sstore(page_slot,\n          // all the modifications to the slot are inside this\n          // next block\n          add(pslot,\n            // we can just add to the slot contents because the\n            // bytes we want to change are the LSBs\n            // increase length by the double of the memory bytes length\n            add(mul(mlength, 2),\n                // load the bytes from memory\n                // zero all bytes to the right\n                mul(div(mload(add(buf, 0x20)), exp(0x100, sub(32, mlength))),\n                    // and now shift left the number of bytes to\n                    // leave space for the length in the slot\n                    exp(0x100, sub(32, newlength)))\n            )\n          )\n        )\n     }\n\n      case 1 {\n        // The stored value fits in the slot, but the combined value\n        // will exceed it.\n        // get the keccak hash to get the contents of the array\n        mstore(0x0, page_slot)\n        let sc := add(keccak256(0x0, 0x20), div(slength, 32))\n\n        // save new length\n        sstore(page_slot, add(mul(newlength, 2), 1))\n\n        // The contents of the buf array start 32 bytes into\n        // the structure. Our first read should obtain the `submod`\n        // bytes that can fit into the unused space in the last word\n        // of the stored array. To get this, we read 32 bytes starting\n        // from `submod`, so the data we read overlaps with the array\n        // contents by `submod` bytes. Masking the lowest-order\n        // `submod` bytes allows us to add that value directly to the\n        // stored value.\n\n        let submod := sub(32, slength)\n        let mc := add(buf, submod)\n        let end := add(buf, mlength)\n        let mask := sub(exp(0x100, submod), 1)\n\n        sstore(\n          sc,\n          add(\n            and(\n              pslot,\n              0xffffffffffffffffffffffffffffffffffffffffffffffffffffffffffffff00),\n          and(mload(mc), mask)))\n\n        for {\n          mc := add(mc, 0x20)\n          sc := add(sc, 1)\n        } lt(mc, end) {\n          sc := add(sc, 1)\n          mc := add(mc, 0x20)\n        } {\n          sstore(sc, mload(mc))\n        }\n\n        mask := exp(0x100, sub(mc, end))\n        sstore(sc, mul(div(mload(mc), mask), mask))\n      }\n\n      default {\n        // get the keccak hash to get the contents of the array\n        mstore(0x0, page_slot)\n        // Start copying to the last used word of the stored array.\n        let sc := add(keccak256(0x0, 0x20), div(slength, 32))\n\n        // save new length\n        sstore(page_slot, add(mul(newlength, 2), 1))\n\n        // Copy over the first `submod` bytes of the new data as in\n        // case 1 above.\n        let slengthmod := mod(slength, 32)\n        let mlengthmod := mod(mlength, 32)\n        let submod := sub(32, slengthmod)\n        let mc := add(buf, submod)\n        let end := add(buf, mlength)\n        let mask := sub(exp(0x100, submod), 1)\n\n        sstore(sc, add(sload(sc), and(mload(mc), mask)))\n\n        for {\n          sc := add(sc, 1)\n          mc := add(mc, 0x20)\n        } lt(mc, end) {\n          sc := add(sc, 1)\n          mc := add(mc, 0x20)\n        } {\n          sstore(sc, mload(mc))\n        }\n\n        mask := exp(0x100, sub(mc, end))\n        sstore(sc, mul(div(mload(mc), mask), mask))\n      }\n    }\n\n  }\n}\n",
  "sourcePath": "/home/werle/repos/arablocks/random-access-contract/contracts/RandomAccessStorage.sol",
  "compiler": {
    "name": "solc",
    "version": "0.4.24+commit.e67f0147.Emscripten.clang"
  },
  "schemaVersion": "2.0.0",
  "updatedAt": "2018-07-09T15:02:18.101Z"
}