{
  "contractName": "RandomAccessStorage",
  "abi": [
    {
      "constant": true,
      "inputs": [
        {
          "name": "pointer",
          "type": "bytes"
        },
        {
          "name": "offset",
          "type": "uint256"
        },
        {
          "name": "len",
          "type": "uint256"
        }
      ],
      "name": "read",
      "outputs": [
        {
          "name": "",
          "type": "bytes"
        }
      ],
      "payable": false,
      "stateMutability": "view",
      "type": "function"
    },
    {
      "constant": false,
      "inputs": [
        {
          "name": "pointer",
          "type": "bytes"
        },
        {
          "name": "buffer",
          "type": "bytes"
        },
        {
          "name": "offset",
          "type": "uint256"
        },
        {
          "name": "len",
          "type": "uint256"
        }
      ],
      "name": "write",
      "outputs": [],
      "payable": false,
      "stateMutability": "nonpayable",
      "type": "function"
    }
  ],
  "bytecode": "0x608060405234801561001057600080fd5b506105d7806100206000396000f30060806040526004361061004c576000357c0100000000000000000000000000000000000000000000000000000000900463ffffffff1680635b5ddb941461005157806368de598514610147575b600080fd5b34801561005d57600080fd5b506100cc600480360381019080803590602001908201803590602001908080601f0160208091040260200160405190810160405280939291908181526020018383808284378201915050505050509192919290803590602001909291908035906020019092919050505061020a565b6040518080602001828103825283818151815260200191508051906020019080838360005b8381101561010c5780820151818401526020810190506100f1565b50505050905090810190601f1680156101395780820380516001836020036101000a031916815260200191505b509250505060405180910390f35b34801561015357600080fd5b50610208600480360381019080803590602001908201803590602001908080601f0160208091040260200160405190810160405280939291908181526020018383808284378201915050505050509192919290803590602001908201803590602001908080601f0160208091040260200160405190810160405280939291908181526020018383808284378201915050505050509192919290803590602001909291908035906020019092919050505061043e565b005b606080600085600061021b826105a0565b11151561022757600080fd5b868686600080610236856105a0565b11151561024257600080fd5b600090505b818110156102f657600080856040518082805190602001908083835b6020831015156102885780518252602082019150602081019050602083039250610263565b6001836020036101000a03801982511681845116808217855250505050505090500191505090815260200160405180910390206000838601815260200190815260200160002060009054906101000a905050600160ff161115156102eb57600080fd5b806001019050610247565b886040519080825280601f01601f1916602001820160405280156103295781602001602082028038833980820191505090505b509650600095505b8886101561042d5760008b6040518082805190602001908083835b602083101515610371578051825260208201915060208101905060208303925061034c565b6001836020036101000a03801982511681845116808217855250505050505090500191505090815260200160405180910390206000878c01815260200190815260200160002060009054906101000a90047f01000000000000000000000000000000000000000000000000000000000000000287878151811015156103f257fe5b9060200101907effffffffffffffffffffffffffffffffffffffffffffffffffffffffffffff1916908160001a905350856001019550610331565b869750505050505050509392505050565b600084600061044c826105a0565b11151561045857600080fd5b846000610464826105a0565b11151561047057600080fd5b600092505b8383101561059757858381518110151561048b57fe5b9060200101517f010000000000000000000000000000000000000000000000000000000000000090047f0100000000000000000000000000000000000000000000000000000000000000026000886040518082805190602001908083835b60208310151561050e57805182526020820191506020810190506020830392506104e9565b6001836020036101000a03801982511681845116808217855250505050505090500191505090815260200160405180910390206000858801815260200190815260200160002060006101000a81548160ff02191690837f010000000000000000000000000000000000000000000000000000000000000090040217905550826001019250610475565b50505050505050565b6000815190509190505600a165627a7a72305820a00ce9f71f4b90e5a845329f3b70db602aa23cf5c19420101fe38194fd88ecb40029",
  "source": "pragma solidity ^0.4.23;\n\n/**\n * The `RandomAccessStorage` contract is an interface for volatile\n * memory access.\n */\ncontract RandomAccessStorage {\n\n  /**\n   * Storage stat indicating time.\n   */\n  struct Stat { uint size; }\n\n  /**\n   * `ram` is a _mapping_ between a memory pointer address to\n   * a mapping of memory cells or arbitrary length.\n   */\n  mapping(bytes => mapping(uint => bytes1)) private ram;\n  mapping(bytes => Stat) private stats;\n\n  /**\n   * Modifier to ensure a given bytes pointer is of \"valid\"\n   * length (len > 0)\n   */\n  modifier valid(bytes pointer) {\n    require(length(pointer) > 0);\n    _;\n  }\n\n  /**\n   * Modifier to ensure a given bytes pointer is of\n   * \"valid\" length (len > 0) and a memory cell at a\n   * given offset is also of \"valid\" length.\n   */\n  modifier access(bytes pointer, uint offset, uint len) {\n    require(length(pointer) > 0);\n    for (uint i = 0; i < len; ++i) {\n      require(ram[pointer][offset + i].length > 0);\n    }\n    _;\n  }\n\n  /**\n   * Helper function to return length of bytes\n   */\n  function length(bytes pointer)\n  private pure returns (uint) {\n    return uint(bytes(pointer).length);\n  }\n\n  /**\n   * Reads a memory cell at a given `offset` for a `pointer`.\n   */\n  function read(bytes pointer, uint offset, uint len)\n  valid(pointer) access(pointer, offset, len)\n  public view returns (bytes memory) {\n    bytes memory out = new bytes(len);\n    for (uint i = 0; i < len; ++i) {\n      out[i] = ram[pointer][offset + i];\n    }\n    return out;\n  }\n\n  /**\n   * Writes a buffer to a memory cell at a given `offset` for a `pointer`.\n   */\n  function write(bytes pointer, bytes buffer, uint offset, uint len)\n  valid(pointer) valid(buffer)\n  public {\n    for (uint i = 0; i < len; ++i) {\n      ram[pointer][offset + i] = buffer[i];\n    }\n  }\n}\n",
  "sourcePath": "/home/werle/repos/arablocks/random-access-contract/contracts/RandomAccessStorage.sol",
  "compiler": {
    "name": "solc",
    "version": "0.4.24+commit.e67f0147.Emscripten.clang"
  },
  "schemaVersion": "2.0.0",
  "updatedAt": "2018-06-27T19:47:52.773Z"
}